:020000040800F2
:1000000000500020111F0008A11E0008A71E0008B4
:10001000AD1E0008B31E0008B91E00080000000055
:10002000000000000000000000000000BF1E0008EB
:10003000CB1E000800000000D71E0008E31E0008C9
:10004000591F0008591F0008591F0008591F0008B0
:10005000591F0008591F0008591F0008591F0008A0
:10006000591F0008591F0008591F0008591F000890
:10007000591F0008591F0008591F0008591F000880
:10008000591F0008591F0008591F0008591F000870
:10009000591F0008591F0008591F0008591F000860
:1000A000591F0008591F0008591F0008591F000850
:1000B000F11E0008591F0008591F0008591F0008A9
:1000C000591F0008591F0008591F0008591F000830
:1000D000591F0008591F0008591F0008591F000820
:1000E000591F0008591F0008591F00080000000090
:1000F0000000000000000000000000000000000000
:0C01000000000000000000005FF808F1A3
:10010C0010B5054C237833B9044B13B10448AFF345
:10011C0000800123237010BD84000020000000002B
:10012C00543F000808B5034B1BB103490348AFF318
:10013C00008008BD0000000088000020543F00082B
:10014C0080B483B000AF00237B604CE02A4A7B680C
:10015C00012142F82310284A7B6852F823202749B2
:10016C007B6841F82320254A7B6852F823202449D8
:10017C007B6841F82320224A7B6852F823202149CE
:10018C007B6841F82320204A7B68642142F82310C5
:10019C001E4A7B68002142F823101D4A7B6800210F
:1001AC0042F823101B4A7B68002142F823101A4A9C
:1001BC007B68002142F82310184A7B68002142F822
:1001CC002310174A7B68002142F82310154A7B68DC
:1001DC00002142F82310144A7B68002142F82310B6
:1001EC007B6801337B607B68032BAFDD00BF00BFF6
:1001FC000C37BD4680BC704730000020200000202A
:10020C00100000200000002040000020A000002072
:10021C00B0000020C0000020D0000020E000002032
:10022C00F0000020000100201001002080B483B0F9
:10023C0000AF78601E4A7B68012142F823101D4AEA
:10024C007B6852F82330002B23DD1B4A7B6852F865
:10025C0023305A1C18497B6841F82320164A7B68C6
:10026C0052F82330022B1ED1144A7B68012142F82C
:10027C0023100F4A7B68002142F823100E4A7B683A
:10028C00002142F823100B4A7B68002142F823100E
:10029C0009E0094A7B68012142F82310054A7B6872
:1002AC001E2142F8231000BF0C37BD4680BC70479E
:1002BC00B0000020E0000020D0000020C000002092
:1002CC0080B582B000AF00237B60DCE0724A7B68B3
:1002DC0052F82330002B08DD6F4A7B6852F823302C
:1002EC005A1E6D497B6841F823206C4A7B6852F892
:1002FC0023206B497B6841F823206A4A7B6852F8BB
:10030C00232066497B6841F82320674A7B6852F8B2
:10031C00232066497B6831F813301946104602F0E9
:10032C002FF9034619465F4A7B6842F823105B4A53
:10033C007B6852F823205B497B6851F823309A4242
:10034C0040F09E80554A7B6852F8232054497B68C4
:10035C0051F823309A4240F09380514A7B6852F80E
:10036C00232053497B6851F823309A4235D04C4AAC
:10037C007B6852F823204E497B6841F823204C4A75
:10038C007B6852F82330002B12D14A4A7B686421D7
:10039C0042F823107868FFF749FF474A7B68002131
:1003AC0042F82310454A7B68002142F8231067E08D
:1003BC00434A7B68002142F823103F4A7B680021A6
:1003CC0042F823103D4A7B68002142F823103D4A35
:1003DC007B68002142F8231052E0354A7B6852F8C2
:1003EC002330002B4CD1344A7B6852F82330002B3D
:1003FC002DD1304A7B6852F823305A1E2D497B6828
:10040C0041F823202B4A7B6852F82330002B37DC31
:10041C002B4A7B68012142F82310274A7B68012173
:10042C0042F823101C4A7B68002142F82310264A0C
:10043C007B68002142F82310244A7B68002142F893
:10044C0023101E4A7B68322142F8231018E01B4A05
:10045C007B6852F823305A1E18497B6841F82320D8
:10046C00164A7B6852F82330002B09DC134A7B6850
:10047C00322142F82310134A7B68012142F82310E1
:10048C007B6801337B607B68032B7FF71FAF00BF5A
:10049C0000BF0837BD4680BDE000002010000020E2
:1004AC0020000020000000205000002060000020F0
:1004BC00300000204000002010010020000100202E
:1004CC00A0000020F0000020D0000020B000002090
:1004DC0080B483B000AF78607B68002B02DB7B6854
:1004EC00032B01DD00230DE0094A7B6852F8233011
:1004FC00002B06D0064A7B68002142F8231001230A
:10050C0000E0002318460C37BD4680BC704700BF86
:10051C00B000002080B483B000AF78607B68002B03
:10052C0002DB7B68032B01DD00230DE0094A7B68AD
:10053C0052F82330002B06D0064A7B68002142F883
:10054C002310012300E0002318460C37BD4680BC65
:10055C00704700BFF000002080B500AF334B1B7814
:10056C001A46334B1B781946324B1B780B449A4274
:10057C0017D02E4B1A782F4B1B789A4208D92B4B3D
:10058C001A782C4B1B78D31ADAB2294B1A7008E064
:10059C00264B05221A70274B02221A70244B032279
:1005AC001A70254B1B78012B15D1244B00221A7085
:1005BC001F4B1A78224B1A701C4B1A78214B1A704D
:1005CC00214A012307CA00F09BFE204A002307CAD8
:1005DC0000F096FE17E0184B00221A70174B012200
:1005EC001A70124B1A781A4B1A70114B1A78194B45
:1005FC001A70154A002307CA00F082FE134A012321
:10060C0007CA00F07DFE4FF4FA6001F0D7FA40F60D
:10061C00B83001F0EFFA42F2107001F007FB4FF422
:10062C007A7001F01FFB00BF80BD00BF6C00002082
:10063C006E0000206D0000202501002068000020C5
:10064C007100002072000020580100204C01002095
:10065C006F0000207400002080B500AF8F4B1B781A
:10066C00002B40F019810020FFF732FF0346002BCE
:10067C0017D08A4B02221A70894B00221A70894BB0
:10068C0002221A700120FFF723FF0220FFF720FF40
:10069C00FA2001F093FA844B00221A7000F073FCDC
:1006AC00FBE07E4B1B78002B40F0F7807F4B1B68E8
:1006BC00002B00F0E3807D4B00221A607C4B1B78F2
:1006CC00022B48D0022B67DC002B02D0012B21D04F
:1006DC0062E0784B1B78013BDAB2764B1A70754BA3
:1006EC001B78002B10D1744B1A78724B1A70734B09
:1006FC001A78734B1A706E4B01221A70714A0123CF
:10070C0007CA00F0FDFD47E06E4A002307CA00F05F
:10071C00F7FD41E06A4B1B78013BDAB2684B1A706B
:10072C00674B1B78002B10D1644B1A78644B1A70F2
:10073C00654B1A78654B1A705D4B02221A70614A30
:10074C00022307CA00F0DCFD26E05E4A012307CA3B
:10075C0000F0D6FD20E05D4B1B78013BDAB25B4B21
:10076C001A705A4B1B78002B10D1574B1A78574BD9
:10077C001A70514B1A784F4B1A704D4B00221A704D
:10078C00504A002307CA00F0BBFD04E04D4A022387
:10079C0007CA00F0B5FD00BF4D4B1B78022B48D0AB
:1007AC00022B67DC002B02D0012B21D062E0494BDD
:1007BC001B78013BDAB2474B1A70464B1B78002B67
:1007CC0010D13D4B1A78434B1A703C4B1A78424B64
:1007DC001A703F4B01221A70404A012307CA00F0DD
:1007EC008FFD47E03D4A002307CA00F089FD41E038
:1007FC00394B1B78013BDAB2374B1A70364B1B78EE
:10080C00002B10D12D4B1A78334B1A702E4B1A78B3
:10081C00334B1A702E4B02221A70304A022307CA2D
:10082C0000F06EFD26E02D4A012307CA00F068FD9A
:10083C0020E02B4B1B78013BDAB2294B1A70284B6A
:10084C001B78002B10D1204B1A78254B1A701A4BA1
:10085C001A78204B1A701E4B00221A701F4A002364
:10086C0007CA00F04DFD04E01C4A022307CA00F041
:10087C0047FD00BF42F2107001F0D8F9194B1B680C
:10088C00002B0AD0174B00221A6000F005FD4FF424
:10089C007A7001F0E7F900E000BF80BD2201002072
:1008AC002301002069000020750000204401002075
:1008BC00250100206F0000206C0000206E0000203D
:1008CC0071000020580100206D00002070000020F5
:1008DC006800002072000020740000204C010020F1
:1008EC00730000204801002080B500AF5C4B1B78E2
:1008FC00012B14D10020FFF7EBFD0346002B0ED08B
:10090C00574B00221A70574B00221A70564B00227C
:10091C001A70FFF721FE554B00221A609EE0504BD7
:10092C001B78002B18D10320FFF7D2FD0346002BB8
:10093C0012D04B4B01221A704A4B00221A704C4BAE
:10094C0000221A704FF47A7001F038F9464B0022ED
:10095C001A7000F0A1FC81E0414B1B78012B7CD17B
:10096C00404B1B78002B02D0012B19D04CE0414B93
:10097C001B68002B45D03F4B00221A603C4B1B7868
:10098C000133DAB23A4B1A70394B1B78022B02D96D
:10099C00344B01221A704FF47A7001F00FF930E0E9
:1009AC000120FFF795FD0346002B0AD02E4B1B7838
:1009BC00002B06D12C4B01221A7040F6B83001F0F6
:1009CC0019F9294B1B78002B1DD02B4B1B68002BC6
:1009DC0019D0294B00221A60234B00221A70274B86
:1009EC001B78002B06D1254B01221A70244B0022B8
:1009FC001A7008E0214B00221A70214B01221A7048
:100A0C0001E000BF00E000BF1C4B1B78002B0AD19B
:100A1C001C4A002307CA00F073FC1B4A012307CAB7
:100A2C0000F06EFC09E0174A012307CA00F068FCCD
:100A3C00154A002307CA00F063FC144B1B780133E2
:100A4C00DAB2124B1A70114B1B78182B06D90F4BBC
:100A5C0000221A7000F020FC00E000BF80BD00BF37
:100A6C00220100202401002021010020440100204B
:100A7C00260100203C01002040010020250100201F
:100A8C0068000020580100204C01002020010020AB
:100A9C0080B500AF214B1B78022B3DD1204B1B683E
:100AAC00002B3AD01E4B00221A604FF4FA6001F072
:100ABC0085F81C4B1B78C3F10103DAB2194B1A7081
:100ACC00194B1B78022B1CD0022B26DC002B02D0DE
:100ADC00012B0BD021E0154A002307CA00F054FC6F
:100AEC00134A002307CA00F04FFC16E00F4A0223FA
:100AFC0007CA00F049FC0E4A022307CA00F044FC66
:100B0C000BE00A4A012307CA00F03EFC084A012305
:100B1C0007CA00F039FC00E000BF80BD22010020B4
:100B2C003C0100207500002023010020580100200A
:100B3C004C01002080B500AF2F4B1B78022B59D1F4
:100B4C002E4B1B78002B55D10020FFF7C1FC034620
:100B5C00002B18D02A4B01221A70294B1A78294BDA
:100B6C001A70284B1A78284B1A70284B00221A70CE
:100B7C00274B01221A70204B00221A70FFF7ECFC55
:100B8C0000F08AFB36E00120FFF7C4FC0346002B83
:100B9C000DD01D4B1B780133DAB21B4B1A701A4B5C
:100BAC001B78632B16D9184B01221A7012E0012006
:100BBC00FFF78EFC0346002B0CD0134B1B78013334
:100BCC00DAB2114B1A70104B1B78632B02D90E4BF7
:100BDC0001221A700220FFF77BFC0346002B09D080
:100BEC00094B1A780B4B1A70044B01221A70064BE6
:100BFC0001221A7080BD00BF2201002023010020B9
:100C0C006B0000206A0000206900002025010020F4
:100C1C00680000206C00002080B500AF2F4B1B78C3
:100C2C00022B59D12E4B1B78012B55D10020FFF7ED
:100C3C004FFC0346002B18D02A4B01221A70294B6B
:100C4C001A78294B1A70284B1A78284B1A70284B93
:100C5C0000221A70274B01221A70204B00221A70A6
:100C6C00FFF77AFC00F018FB36E00120FFF752FC8E
:100C7C000346002B0DD01C4B1B780133DAB21A4BF8
:100C8C001A70194B1B78632B16D9174B01221A704B
:100C9C0012E00120FFF71CFC0346002B0CD0124B7A
:100CAC001B780133DAB2104B1A700F4B1B78632B85
:100CBC0002D90D4B01221A700220FFF709FC0346E2
:100CCC00002B09D0084B1A780B4B1A70044B0222DC
:100CDC001A70054B01221A7080BD00BF2201002042
:100CEC00230100206B0000206A0000206900002016
:100CFC0025010020680000206D00002080B500AFA9
:100D0C00344B1B78022B63D1334B1B78022B5FD1F6
:100D1C000020FFF7DDFB0346002B16D02F4B0122E2
:100D2C001A702E4B1A782E4B1A702D4B1A782D4B9D
:100D3C001A702D4B00221A702C4B01221A70FFF7DF
:100D4C000BFC244B00221A7042E00120FFF7E2FB5F
:100D5C000346002B0DD0214B1B780133DAB21F4B0D
:100D6C001A701E4B1B78632B16D91C4B01221A7060
:100D7C0012E00120FFF7ACFB0346002B0CD0174B05
:100D8C001B780133DAB2154B1A70144B1B78632B9A
:100D9C0002D9124B01221A700220FFF799FB03466D
:100DAC00002B15D00D4B1A78114B1A70114B1A7869
:100DBC000F4B1B781344DAB20F4B1A70054B002201
:100DCC001A70FFF7C9FB00F067FA044B01221A7086
:100DDC0080BD00BF22010020230100206B000020F9
:100DEC006A00002069000020250100206800002016
:100DFC006E0000206D0000206C00002080B500AF5C
:100E0C000D4B1B78022B15D1FFF742FEFFF792FE1C
:100E1C00FFF702FFFFF772FF084B1B68002B0AD08D
:100E2C00064B00221A6000F037FA42F2107000F004
:100E3C0019FF00E000BF80BD220100204801002006
:100E4C0080B586B002AF0346FB71FB7923F00F032C
:100E5C00FB73FB791B01BB73FB7B43F00C03DBB215
:100E6C003B72FB7B43F00803DBB27B72BB7B43F032
:100E7C000C03DBB2BB72BB7B43F00803DBB2FB722F
:100E8C0007F108026423009304234221034801F074
:100E9C00EBFC00BF1037BD4680BD00BFC401002075
:100EAC0080B586B002AF0346FB71FB7923F00F03CC
:100EBC00FB73FB791B01BB73FB7B43F00D03DBB2B4
:100ECC003B72FB7B43F00903DBB27B72BB7B43F0D1
:100EDC000D03DBB2BB72BB7B43F00903DBB2FB72CD
:100EEC0007F108026423009304234221034801F014
:100EFC00BBFC00BF1037BD4680BD00BFC401002045
:100F0C0080B500AF3320FFF79BFF3220FFF798FF2F
:100F1C00322001F07FF82820FFF792FF322001F0F9
:100F2C0079F80120FFF78CFF322001F073F80620CE
:100F3C00FFF786FF322001F06DF80C20FFF780FFE1
:100F4C00322001F067F80220FFF77AFF322001F01F
:100F5C0061F88020FFF774FF00BF80BD80B582B0C0
:100F6C0000AF786006E07B685A1C7A601B781846E4
:100F7C00FFF796FF7B681B78002BF4D100BF00BFF6
:100F8C000837BD4680BD80B500AF0120FFF758FF84
:100F9C0000BF80BD80B584B000AF786039607B68DD
:100FAC00002B04D13B68DBB2803BFB730BE07B680E
:100FBC00012B04D13B68DBB2403BFB7303E03B6885
:100FCC00DBB2803BFB73FB7B1846FFF739FF00BF9E
:100FDC001037BD4680BD000080B582B000AF03461F
:100FEC00FB71FB79092B06D8FB793033DBB2184641
:100FFC00FFF756FF1AE0FB790E4AA2FB0323DB082E
:10100C00DBB23033DBB21846FFF74AFFFA79094BF3
:10101C00A3FB0213D9080B469B000B445B00D31AAD
:10102C00DBB23033DBB21846FFF73AFF00BF0837AC
:10103C00BD4680BDCDCCCCCC80B500AF3C4B1B7835
:10104C00002B72D100210020FFF7A4FF3948FFF7D5
:10105C0085FF00210120FFF79DFF374B1B78022BEA
:10106C0020D0022B2BDC002B02D0012B0DD026E044
:10107C003248FFF773FF03210120FFF78BFF304B42
:10108C001B781846FFF7A8FF19E02E48FFF766FFFC
:10109C0003210120FFF77EFF2B4B1B781846FFF72F
:1010AC009BFF0CE02948FFF759FF03210120FFF7B4
:1010BC0071FF274B1B781846FFF78EFF00BF0821E6
:1010CC000120FFF767FF234B1B78022B20D0022B4C
:1010DC002CDC002B02D0012B0DD027E01748FFF79A
:1010EC003DFF0B210120FFF755FF1B4B1B781846CA
:1010FC00FFF772FF1AE01348FFF730FF0B210120B6
:10110C00FFF748FF154B1B781846FFF765FF0DE0FE
:10111C000E48FFF723FF0B210120FFF73BFF104B7D
:10112C001B781846FFF758FF00E000BF80BD00BFDA
:10113C00220100206C3F000825010020783F0008A8
:10114C006F0000207C3F000871000020803F0008E9
:10115C007000002068000020720000207400002045
:10116C007300002080B500AF0E4B1B78012B16D1FD
:10117C0000210020FFF70EFF0B48FFF7EFFE0021C8
:10118C000120FFF707FF094B1B78002B03D1084800
:10119C00FFF7E4FE04E00748FFF7E0FE00E000BFC5
:1011AC0080BD00BF22010020843F000825010020E3
:1011BC00943F0008A03F000880B500AF2B4B1B7874
:1011CC00022B50D100210020FFF7E4FE2848FFF746
:1011DC00C5FE00210120FFF7DDFE2648FFF7BEFE0D
:1011EC0003210120FFF7D6FE234B1B78022B0ED0D8
:1011FC00022B10DC002B02D0012B04D00BE01F487B
:10120C00FFF7ACFE07E01E48FFF7A8FE03E01D4801
:10121C00FFF7A4FE00BF08210120FFF7BBFE1A4810
:10122C00FFF79CFE0B210120FFF7B4FE124B1B783D
:10123C00022B12D0022B17DC002B02D0012B06D074
:10124C0012E0124B1B781846FFF7C6FE0CE0104B51
:10125C001B781846FFF7C0FE06E00E4B1B781846AD
:10126C00FFF7BAFE00E000BF80BD00BF22010020E6
:10127C00AC3F0008BC3F000823010020C03F000821
:10128C00C43F0008C83F0008CC3F0008690000209C
:10129C006A0000206B00002080B500AF0021002008
:1012AC00FFF778FE0848FFF759FE00210120FFF7F1
:1012BC0071FE0548FFF752FEFFF7BEFEFFF752FF27
:1012CC00FFF77AFF00BF80BDD03F000880B485B027
:1012DC0000AFF8607B600B467B8113463B81FB685B
:1012EC007A891A80FB683A895A80FB687A685A6056
:1012FC00FB68BA699A6000BF1437BD4680BC704762
:10130C0090B585B000AF3C1D84E80700FB70BB684E
:10131C00B9880022184601F04AF9FB68F9880022C6
:10132C00184601F044F9FB78002B0CD1BB68B98846
:10133C000122184601F03BF9FB68F9880122184696
:10134C0001F035F91BE0FB78022B0CD1BB68B98896
:10135C000122184601F02BF9FB68F9880022184687
:10136C0001F025F90BE0BB68B9880022184601F0A2
:10137C001EF9FB68F9880122184601F018F900BF24
:10138C001437BD4690BD000090B585B000AF3C1D34
:10139C0084E80700FB700D4B1B78002B0CD0BB684E
:1013AC00B9880022184601F002F9FB68F98800227E
:1013BC00184601F0FCF804E0FB783A1D07CAFFF769
:1013CC009FFF00BF1437BD4690BD00BF75000020C5
:1013DC0080B582B002AF00F0BBFD00F051F800F018
:1013EC000BF900F08FF800F0BBF81C4802F0DEF9A6
:1013FC00FEF7A6FEFFF784FD194B0093184B08224D
:10140C0020211848FFF762FF154B0093144B102254
:10141C004FF480611448FFF759FFFFF79DF800F077
:10142C008BF901220021114800F0D0F90122002192
:10143C000F4800F0CBF9012200210E4800F0C6F94C
:10144C00012200210C4800F0C1F9012200210B48B7
:10145C0000F0BCF900F084FBFCE700BF1802002090
:10146C00000C0140580100204C010020A91C000870
:10147C00CD02000865060008090E0008F5080008F2
:10148C0080B590B000AF07F1180328220021184650
:10149C0002F052FD3B1D00221A605A609A60DA601D
:1014AC001A610223BB610123BB621023FB6202237E
:1014BC007B630023BB634FF46013FB6307F11803DA
:1014CC00184601F029FD0346002B01D000F017F956
:1014DC000F237B600223BB600023FB604FF480630F
:1014EC003B6100237B613B1D0221184601F094FFF8
:1014FC000346002B01D000F002F900BF4037BD4677
:10150C0080BD000080B500AF124B134A1A60114B1E
:10151C00124A5A600F4B00229A600E4B0022DA607E
:10152C000C4B4FF480421A610A4B00225A61094B52
:10153C0000229A61074B0022DA61064B00221A62E4
:10154C00044801F04DF80346002B01D000F0D7F809
:10155C0000BF80BDC401002000540040A0860100E3
:10156C0080B586B000AF07F1080300221A605A60FC
:10157C009A60DA603B4600221A605A601D4B4FF0AD
:10158C0080421A601B4B41F63F725A60194B002285
:10159C009A60184B0922DA60164B00221A61154B1F
:1015AC0000229A61134802F0B1F80346002B01D0D7
:1015BC0000F0A5F84FF48053BB6007F108031946FF
:1015CC000C4802F035FA0346002B01D000F097F8D6
:1015DC0000233B6000237B603B461946054802F024
:1015EC0017FC0346002B01D000F089F800BF183718
:1015FC00BD4680BD1802002080B588B000AF07F151
:10160C00100300221A605A609A60DA60304B9B69B2
:10161C002F4A43F0080393612D4B9B6903F0080399
:10162C00FB60FB682A4B9B69294A43F010039361CA
:10163C00274B9B6903F01003BB60BB68244B9B6971
:10164C00234A43F004039361214B9B6903F0040389
:10165C007B607B6800224FF487611E4800F0A7FF77
:10166C004FF487633B6101237B610023BB61022341
:10167C00FB6107F110031946164800F0FDFD8023AD
:10168C003B6100237B610123BB6107F11003194609
:10169C00114800F0F1FD4FF440733B6100237B6176
:1016AC000123BB6107F1100319460C4800F0E4FD5F
:1016BC0040233B6100237B610123BB6107F11003D5
:1016CC001946044800F0D8FD00BF2037BD4680BD48
:1016DC0000100240000C01400010014000080140C5
:1016EC0080B582B000AF78607B681B68B3F1804F27
:1016FC0001D100F015FA00BF0837BD4680BD80B49B
:10170C0000AF72B600BFFEE780B400AF094B1B6898
:10171C000133084A1360074B1B68002B04D1054B9F
:10172C001B680133034A1360024B1B681846BD4605
:10173C0080BC70472801002080B483B000AF002328
:10174C007B6033E01F497A6813469B0013449B006F
:10175C000B4400221A601B497A6813469B00134401
:10176C009B000B44043300221A6016497A68134616
:10177C009B0013449B000B44083300221A60114950
:10178C007A6813469B0013449B000B440C330022D5
:10179C001A700C497A6813469B0013449B000B4447
:1017AC00103300221A607B6801337B607B68272B27
:1017BC00C8DD054B00221A6000BF0C37BD4680BC4B
:1017CC00704700BF6002002028010020B0B58AB02D
:1017DC0000AFF860B9607A6000237B62002387F861
:1017EC002330EBE097F82320794913469B001344F0
:1017FC009B000B4404331B687A6A13447B627A6A3D
:10180C00BB689A427DD997F82320714913469B00F7
:10181C0013449B000B4404331A687B6AD31ABA68CE
:10182C0013447B6197F82320796ABB68C91A68480E
:10183C0013469B0013449B00034404331960272375
:10184C00FB6117E0FB695A1E6148F9690B469B0066
:10185C000B449B0018445E4913469B0013449B00A9
:10186C000B4404461D460FCD0FC42B682360FB6947
:10187C00013BFB6197F82330FA699A42E2DC97F856
:10188C002320534913469B0013449B000B44FA68D6
:10189C001A6097F823204E4913469B0013449B0073
:1018AC000B4404337A691A6097F82320484913468D
:1018BC009B0013449B000B4408337A681A607B69C5
:1018CC00002B0CBF01230023DBB297F82320184612
:1018DC003F4913469B0013449B000B440C330246B8
:1018EC001A70FFF711FFB86197F823203849134697
:1018FC009B0013449B000B441033BA691A60BB69FC
:10190C0062E097F82320324913469B0013449B0056
:10191C000B441B68002B4CD197F823202C49134601
:10192C009B0013449B000B44FA681A6097F8232021
:10193C00B9687B6AC91A264813469B0013449B005E
:10194C0003440433196097F82320214913469B0064
:10195C0013449B000B4408337A681A6097F82320D1
:10196C001B4913469B0013449B000B4404331B6818
:10197C00002B0CBF01230023DBB297F82320184661
:10198C00134913469B0013449B000B440C33024633
:10199C001A70FFF7B9FEB86197F823200C4913466B
:1019AC009B0013449B000B441033BA691A60BB694B
:1019BC000AE097F82330013387F8233097F8233067
:1019CC00272B7FF60FAF002318462837BD46B0BD36
:1019DC0060020020B0B485B000AF78607B68002B4B
:1019EC0001D1002395E00023FB738DE0FA7B4B497A
:1019FC0013469B0013449B000B4410331B687A68FE
:101A0C009A427ED1FB7B262B28D8FB7B5A1C434960
:101A1C0013469B0013449B000B441B68002B1DD0EA
:101A2C00FB7B5A1C3D4913469B0013449B000B4403
:101A3C0004331968FA7B394813469B0013449B0006
:101A4C00034404331B68FA7B0132194433481346B0
:101A5C009B0013449B00034404331960FB7BBB7352
:101A6C0017E0BB7B5A1CB97B2C480B469B000B44E4
:101A7C009B001844294913469B0013449B000B44BC
:101A8C0004461D460FCD0FC42B682360BB7B01336E
:101A9C00BB73BB7B262BE4D927237B737A7B1F4933
:101AAC0013469B0013449B000B4400221A607A7B64
:101ABC001A4913469B0013449B000B440433002229
:101ACC001A607A7B154913469B0013449B000B4408
:101ADC00083300221A607A7B104913469B0013448A
:101AEC009B000B440C3300221A707A7B0B49134673
:101AFC009B0013449B000B44103300221A600123FB
:101B0C0007E0FB7B0133FB73FB7B272B7FF66EAF70
:101B1C00002318461437BD46B0BC70476002002045
:101B2C0080B400AF0D4B1B68002B13D00B4B1B7BF1
:101B3C00002B0FD1094B5B68002B04D0074B5B6863
:101B4C00013B064A5360054B5B68002B02D1034BEB
:101B5C0001221A7300BFBD4680BC70476002002092
:101B6C00B0B586B000AF144B1B7B002B1FD0124BB3
:101B7C001B68002B1BD0104B3C1D1D460FCD0FC4FA
:101B8C002B6823607B6898470B4B1B7B013BDAB2BD
:101B9C00094B1A737B691846FFF71CFFFB68002B77
:101BAC0005D07B68F968FA681846FFF70FFE00BF8E
:101BBC001837BD46B0BD00BF6002002080B483B0B2
:101BCC0000AF78607B68084A82FB03129210DB1727
:101BDC00D31A064A1360064B00221A6000BF0C375A
:101BEC00BD4680BC704700BF676666662C0100204E
:101BFC003C01002080B483B000AF78607B68084A59
:101C0C0082FB03129210DB17D31A064A1360064BA1
:101C1C0000221A6000BF0C37BD4680BC704700BF65
:101C2C0067666666300100204001002080B483B0F6
:101C3C0000AF78607B68084A82FB03129210DB17B6
:101C4C00D31A064A1360064B00221A6000BF0C37E9
:101C5C00BD4680BC704700BF6766666634010020D5
:101C6C004401002080B483B000AF78607B68084AE0
:101C7C0082FB03129210DB17D31A064A1360064B31
:101C8C0000221A6000BF0C37BD4680BC704700BFF5
:101C9C0067666666380100204801002080B400AFFA
:101CAC00214B1B68002B0BDD1F4B1B68013B1E4A95
:101CBC0013601D4B1B68002B02D11C4B01221A60B8
:101CCC001B4B1B68002B0BDD194B1B68013B184A87
:101CDC001360174B1B68002B02D1164B01221A60A4
:101CEC00154B1B68002B0BDD134B1B68013B124A79
:101CFC001360114B1B68002B02D1104B01221A6090
:101D0C000F4B1B68002B0BDD0D4B1B68013B0C4A6A
:101D1C0013600B4B1B68002B02D10A4B01221A607B
:101D2C0000BFBD4680BC70472C0100203C01002048
:101D3C00300100204001002034010020440100202B
:101D4C00380100204801002080B485B000AF154B4D
:101D5C009B69144A43F001039361124B9B6903F096
:101D6C000103BB60BB680F4BDB690E4A43F0805329
:101D7C00D3610C4BDB6903F080537B607B680A4BAF
:101D8C005B68FB60FB6823F0E063FB60FB6843F07F
:101D9C000073FB60044AFB68536000BF1437BD46F8
:101DAC0080BC7047001002400000014080B58AB032
:101DBC0000AF786007F1140300221A605A609A6031
:101DCC00DA607B681B681D4A934232D11C4B9B69BD
:101DDC001B4A43F008039361194B9B6903F00803FA
:101DEC003B613B694FF440737B611223BB6103235E
:101DFC003B6207F114031946124800F03DFA124BEE
:101E0C005B687B627B6A43F0E0637B627B6A43F0D6
:101E1C0002037B620C4A7B6A5360094BDB69084AFC
:101E2C0043F40013D361064BDB6903F40013FB602E
:101E3C00FB6800BF2837BD4680BD00BF0054004082
:101E4C0000100240000C01400000014080B584B03D
:101E5C0000AF78607B681B68B3F1804F13D10C4BDB
:101E6C00DB690B4A43F00103D361094BDB6903F0D7
:101E7C000103FB60FB68002200211C2000F0C5F967
:101E8C001C2000F0DEF900BF1037BD4680BD00BF3E
:101E9C000010024080B400AFFEE780B400AFFEE754
:101EAC0080B400AFFEE780B400AFFEE780B400AFB3
:101EBC00FEE780B400AF00BFBD4680BC704780B465
:101ECC0000AF00BFBD4680BC704780B400AF00BF00
:101EDC00BD4680BC704780B500AF00F07FF800BFF6
:101EEC0080BD000080B500AF024801F0B1FC00BF1E
:101EFC0080BD00BF1802002080B400AF00BFBD46FB
:101F0C0080BC7047FFF7F8FF0B480C490C4A0023C4
:101F1C0002E0D458C4500433C4188C42F9D3094A93
:101F2C00094C002301E013600432A242FBD301F000
:101F3C00DFFFFFF74DFA70470000002084000020FF
:101F4C00184000088400002084050020FEE70000F3
:101F5C0080B500AF084B1B68074A43F010031360B1
:101F6C00032000F047F90F2000F008F8FFF7ECFE13
:101F7C000023184680BD00BF0020024080B582B00F
:101F8C0000AF7860124B1A68124B1B7819464FF44D
:101F9C007A73B3FBF1F3B2FBF3F3184600F05FF97D
:101FAC000346002B01D001230EE07B680F2B0AD8CF
:101FBC00002279684FF0FF3000F027F9064A7B6861
:101FCC001360002300E0012318460837BD4680BD8E
:101FDC0078000020800000207C00002080B400AF3E
:101FEC00054B1B781A46054B1B681344034A1360B8
:101FFC0000BFBD4680BC70478000002080050020DB
:10200C0080B400AF024B1B681846BD4680BC7047BD
:10201C008005002080B584B000AF7860FFF7F0FF3A
:10202C00B8607B68FB60FB68B3F1FF3F05D00A4BDF
:10203C001B781A46FB681344FB6000BFFFF7E0FFF8
:10204C000246BB68D31AFA689A42F7D800BF00BFA1
:10205C001037BD4680BD00BF8000002080B485B025
:10206C0000AF78607B6803F00703FB600C4BDB6808
:10207C00BB60BA684FF6FF031340BB60FB681A02E3
:10208C00BB68134343F0BF6343F40033BB60044AA3
:10209C00BB68D36000BF1437BD4680BC704700BF1F
:1020AC0000ED00E080B400AF044BDB681B0A03F0CA
:1020BC0007031846BD4680BC704700BF00ED00E02A
:1020CC0080B483B000AF0346FB7197F90730002B47
:1020DC000BDBFB7903F01F02064997F907305B090C
:1020EC00012000FA02F241F8232000BF0C37BD4654
:1020FC0080BC704700E100E080B483B000AF0346C1
:10210C003960FB7197F90730002B0ADB3B68DAB2B8
:10211C000C4997F907301201D2B20B4483F8002313
:10212C000AE03B68DAB20849FB7903F00F03043B81
:10213C001201D2B20B441A7600BF0C37BD4680BCDC
:10214C00704700BF00E100E000ED00E080B489B012
:10215C0000AFF860B9607A60FB6803F00703FB61BD
:10216C00FB69C3F10703042B28BF0423BB61FB6984
:10217C000433062B02D9FB69033B00E000237B618F
:10218C004FF0FF32BB6902FA03F3DA43BB681A4023
:10219C007B699A404FF0FF317B6901FA03F3D94315
:1021AC007B680B40134318462437BD4680BC7047F0
:1021BC0080B582B000AF78607B68013BB3F1807F63
:1021CC0001D301230FE00A4A7B68013B53600F21C6
:1021DC004FF0FF30FFF790FF054B00229A60044B45
:1021EC0007221A60002318460837BD4680BD00BF81
:1021FC0010E000E080B582B000AF78607868FFF73F
:10220C002DFF00BF0837BD4680BD80B586B000AF3E
:10221C000346B9607A60FB7300237B61FFF742FFD2
:10222C0078617A68B9687869FFF790FF024697F988
:10223C000F3011461846FFF75FFF00BF1837BD4639
:10224C0080BD80B582B000AF0346FB7197F90730B3
:10225C001846FFF735FF00BF0837BD4680BD80B577
:10226C0082B000AF78607868FFF7A2FF034618468B
:10227C000837BD4680BD000080B48BB000AF7860DD
:10228C00396000237B6200233B6269E101227B6A97
:10229C0002FA03F3FB613B681B68FA691340BB61EC
:1022AC00BA69FB699A4240F058813B685B689A4A6C
:1022BC0093425ED0984A934275D8984A934258D02C
:1022CC00964A93426FD8964A934252D0944A93427C
:1022DC0069D8944A93424CD0924A934263D8924A1A
:1022EC00934246D0904A93425DD8122B2AD8122B97
:1022FC0059D801A252F823F07F2300085923000873
:10230C006B230008AD230008B3230008B323000897
:10231C00B3230008B3230008B3230008B323000839
:10232C00B3230008B3230008B3230008B323000829
:10233C00B3230008B3230008B3230008612300086B
:10234C0075230008794A934213D02CE03B68DB6874
:10235C003B6229E03B68DB6804333B6224E03B686A
:10236C00DB6808333B621FE03B68DB680C333B6285
:10237C001AE03B689B68002B02D104233B6213E0FC
:10238C003B689B68012B05D108233B627B68FA698B
:10239C001A6109E008233B627B68FA695A6103E021
:1023AC0000233B6200E000BFBB69FF2B01D87B68B8
:1023BC0001E07B6804337B61BB69FF2B02D87B6A2D
:1023CC009B0002E07B6A083B9B003B617B691A68BF
:1023DC000F213B6901FA03F3DB431A40396A3B696D
:1023EC0001FA03F31A437B691A603B685B6803F0DC
:1023FC008053002B00F0B1804D4B9B694C4A43F04D
:10240C00010393614A4B9B6903F00103BB60BB68FA
:10241C00484A7B6A9B08023352F82330FB607B6A84
:10242C0003F003039B000F2202FA03F3DB43FA6869
:10243C001340FB607B68404A934213D07B683F4A51
:10244C0093420DD07B683E4A934207D07B683D4A4D
:10245C00934201D1032306E0042304E0022302E0AB
:10246C00012300E000237A6A02F0030292009340F9
:10247C00FA681343FB602F497B6A9B080233FA68A6
:10248C0041F823203B685B6803F48013002B06D0D3
:10249C002D4B9A682C49BB6913438B6006E02A4B81
:1024AC009A68BB69DB43284913408B603B685B68C7
:1024BC0003F40013002B06D0234BDA682249BB69C6
:1024CC001343CB6006E0204BDA68BB69DB431E4943
:1024DC001340CB603B685B6803F40033002B06D0E1
:1024EC00194B5A681849BB6913434B6006E0164BED
:1024FC005A68BB69DB43144913404B603B685B680B
:10250C0003F48033002B21D00F4B1A680E49BB69A2
:10251C0013430B6021E000BF0000321000003110AB
:10252C0000002210000021100000121000001110F9
:10253C00001002400000014000080140000C014066
:10254C000010014000140140000401400B4B1A68BC
:10255C00BB69DB43094913400B607B6A01337B6227
:10256C003B681A687B6A22FA03F3002B7FF48EAE69
:10257C0000BF00BF2C37BD4680BC70470004014033
:10258C0080B485B000AF78600B467B807B689A681E
:10259C007B881340002B02D00123FB7301E0002346
:1025AC00FB73FB7B18461437BD4680BC704780B468
:1025BC0083B000AF78600B467B8013467B707B78D2
:1025CC00002B03D07A887B681A6103E07B881A049D
:1025DC007B681A6100BF0C37BD4680BC7047000099
:1025EC0080B584B000AF78607B68002B01D10123EB
:1025FC002BE17B6893F83D30DBB2002B06D17B6876
:10260C00002283F83C207868FFF7D0FB7B682422FB
:10261C0083F83D207B681B681A687B681B6822F076
:10262C0001021A607B681B681A687B681B6842F49D
:10263C0000421A607B681B681A687B681B6822F46E
:10264C0000421A6001F030F8F8607B685B68814AE0
:10265C00934207D8FB68804A934294BF012300231E
:10266C00DBB206E0FB687D4A934294BF0123002352
:10267C00DBB2002B01D00123E7E0FB68784AA2FB18
:10268C0003239B0CBB607B681B685B6823F03F01DA
:10269C007B681B68BA680A435A607B681B681B6AB4
:1026AC0023F03F017B685B686A4A934202D8BB689F
:1026BC00013309E0BB684FF4967202FB03F3694ADD
:1026CC00A2FB03239B0901337A6812680B43136244
:1026DC007B681B68DB6923F44F4222F0FF027B68A6
:1026EC005B685C498B4219D8FB68591E7B685B6838
:1026FC005B00B1FBF3F3591C40F6FC730B40002B51
:10270C000AD0FB68591E7B685B685B00B1FBF3F376
:10271C000133C3F30B0351E004234FE07B689B6848
:10272C00002B11D1FB68581E7B6859680B465B0067
:10273C000B44B0FBF3F30133C3F30B03002B0CBFBF
:10274C0001230023DBB212E0FB68581E7B6859683A
:10275C000B469B000B4499000B44B0FBF3F3013385
:10276C00C3F30B03002B0CBF01230023DBB2002BA4
:10277C0001D0012322E07B689B68002B0ED1FB6803
:10278C00581E7B6859680B465B000B44B0FBF3F397
:10279C000133C3F30B0343F400430FE0FB68581EF3
:1027AC007B6859680B469B000B4499000B44B0FBAB
:1027BC00F3F30133C3F30B0343F440437968096823
:1027CC001343CB617B681B681B6823F0C0017B68DB
:1027DC00DA697B681B6A1A437B681B680A431A60B8
:1027EC007B681B689B6823F4034323F0FF037A6820
:1027FC0011697A68D26811437A6812680B43936046
:10280C007B681B68DB6823F0FF017B685A697B6877
:10281C009B691A437B681B680A43DA607B681B68F8
:10282C001A687B681B6842F001021A607B68002200
:10283C001A647B68202283F83D207B6800221A638F
:10284C007B68002283F83E20002318461037BD46D3
:10285C0080BD00BFA08601007F841E00FF083D00E4
:10286C0083DE1B43D34D621080B588B002AFF86095
:10287C007A601A460B467B8113463B81FFF7C0FBFF
:10288C007861FB6893F83D30DBB2202B40F0E080A0
:10289C007B690093192301227049F86800F064F9F0
:1028AC000346002B01D00223D3E0FB6893F83C30A5
:1028BC00012B01D10223CCE0FB68012283F83C20E0
:1028CC00FB681B681B6803F00103012B07D0FB6836
:1028DC001B681A68FB681B6842F001021A60FB68EF
:1028EC001B681A68FB681B6822F400621A60FB689C
:1028FC00212283F83D20FB68102283F83E20FB68E0
:10290C0000221A64FB687A685A62FB683A895A8515
:10291C00FB685B8D9AB2FB681A85FB68504ADA62D9
:10292C0079897B693A6AF86800F09CF80346002BB9
:10293C0001D001238DE000233B61FB681B685B69C0
:10294C003B61FB681B689B693B613B6966E07A698C
:10295C00396AF86800F022FA0346002B0DD0FB68A8
:10296C001B6C042B07D1FB681B681A68FB681B687F
:10297C0042F400721A6001236BE0FB685B6A1A7800
:10298C00FB681B681A61FB685B6A5A1CFB685A621D
:10299C00FB685B8D9BB2013B9AB2FB685A85FB6866
:1029AC001B8D013B9AB2FB681A85FB681B685B693F
:1029BC0003F00403042B1BD1FB681B8D002B17D0D9
:1029CC00FB685B6A1A78FB681B681A61FB685B6AB8
:1029DC005A1CFB685A62FB685B8D9BB2013B9AB236
:1029EC00FB685A85FB681B8D013B9AB2FB681A8504
:1029FC007A69396AF86800F019FA0346002B0DD091
:102A0C00FB681B6C042B07D1FB681B681A68FB68FE
:102A1C001B6842F400721A6001231AE0FB681B8DDC
:102A2C00002B94D1FB681B681A68FB681B6842F486
:102A3C0000721A60FB68202283F83D20FB6800229C
:102A4C0083F83E20FB68002283F83C20002300E042
:102A5C00022318461837BD4680BD00BF0200100087
:102A6C000000FFFF80B588B002AFF8607A603B6071
:102A7C000B467B81FB68DB6A7B617B69082B06D08C
:102A8C007B69012B03D07B6913F5803F08D1FB6870
:102A9C001B681A68FB681B6842F480721A600BE0B2
:102AAC00FB681B6B122B07D1FB681B681A68FB6851
:102ABC001B6842F480721A603B6800937B680022AA
:102ACC004FF00111F86800F04FF80346002B0DD0C1
:102ADC00FB681B681B6803F48073B3F5807F03D11C
:102AEC00FB684FF400721A64032335E0FB681B6922
:102AFC00B3F5804F08D17B89DBB21A46FB681B68A3
:102B0C0002F0FE021A611BE07B89DB11DBB203F0E1
:102B1C000603DBB263F00F03DAB2FB681B681A61C1
:102B2C003B687A680E49F86800F098F80346002B69
:102B3C0001D0012310E07B89DAB2FB681B681A61B3
:102B4C003B687A680749F86800F088F80346002B60
:102B5C0001D0012300E0002318461837BD4680BD84
:102B6C00080001000200010080B584B000AFF860DD
:102B7C00B9603B601346FB7148E03B68B3F1FF3F23
:102B8C0044D0FFF73DFA0246BB69D31A3A689A4221
:102B9C0002D33B68002B39D1BB681B0CDBB2012B79
:102BAC000DD1FB681B685B69DA43BB6813409BB2B1
:102BBC00002B0CBF01230023DBB21A460CE0FB6890
:102BCC001B689B69DA43BB6813409BB2002B0CBF9C
:102BDC0001230023DBB21A46FB799A4216D1FB681B
:102BEC0000221A63FB68202283F83D20FB68002238
:102BFC0083F83E20FB681B6C43F02002FB681A64D0
:102C0C00FB68002283F83C20012323E0BB681B0CEB
:102C1C00DBB2012B0DD1FB681B685B69DA43BB6827
:102C2C0013409BB2002B0CBF01230023DBB21A46CE
:102C3C000CE0FB681B689B69DA43BB6813409BB2D2
:102C4C00002B0CBF01230023DBB21A46FB799A42FE
:102C5C0093D0002318461037BD4680BD80B584B094
:102C6C0000AFF860B9607A603B6071E0FB681B688C
:102C7C005B6903F48063B3F5806F23D1FB681B6839
:102C8C001A68FB681B6842F400721A60FB681B68C8
:102C9C006FF480625A61FB6800221A63FB68202281
:102CAC0083F83D20FB68002283F83E20FB681B6CF8
:102CBC0043F00402FB681A64FB68002283F83C2092
:102CCC00012367E07B68B3F1FF3F41D0FFF798F930
:102CDC0002463B68D31A7A689A4202D37B68002B6F
:102CEC0036D1BB681B0CDBB2012B0CD1FB681B680B
:102CFC005B69DA43BB6813409BB2002B14BF012302
:102D0C000023DBB20BE0FB681B689B69DA43BB68F2
:102D1C0013409BB2002B14BF01230023DBB2002B0A
:102D2C0016D0FB6800221A63FB68202283F83D2032
:102D3C00FB68002283F83E20FB681B6C43F02002EA
:102D4C00FB681A64FB68002283F83C20012321E015
:102D5C00BB681B0CDBB2012B0CD1FB681B685B69DD
:102D6C00DA43BB6813409BB2002B14BF0123002332
:102D7C00DBB20BE0FB681B689B69DA43BB68134052
:102D8C009BB2002B14BF01230023DBB2002B7FF47A
:102D9C006DAF002318461037BD4680BD80B584B09A
:102DAC0000AFF860B9607A6034E0F86800F086F83B
:102DBC000346002B01D0012334E0BB68B3F1FF3F85
:102DCC0028D0FFF71DF902467B68D31ABA689A42DD
:102DDC0002D3BB68002B1DD1FB681B685B6903F039
:102DEC008003802B16D0FB6800221A63FB6820221C
:102DFC0083F83D20FB68002283F83E20FB681B6CA7
:102E0C0043F02002FB681A64FB68002283F83C2024
:102E1C00012307E0FB681B685B6903F08003802BD0
:102E2C00C3D1002318461037BD4680BD80B584B091
:102E3C0000AFF860B9607A6034E0F86800F03EF8F2
:102E4C000346002B01D0012334E0BB68B3F1FF3FF4
:102E5C0028D0FFF7D5F802467B68D31ABA689A4295
:102E6C0002D3BB68002B1DD1FB681B685B6903F0A8
:102E7C000403042B16D0FB6800221A63FB68202283
:102E8C0083F83D20FB68002283F83E20FB681B6C16
:102E9C0043F02002FB681A64FB68002283F83C2094
:102EAC00012307E0FB681B685B6903F00403042B38
:102EBC00C3D1002318461037BD4680BD80B483B003
:102ECC0000AF78607B681B685B6903F48063B3F5C3
:102EDC00806F1BD17B681B686FF480625A617B68C2
:102EEC0000221A637B68202283F83D207B68002235
:102EFC0083F83E207B681B6C43F004027B681A64E9
:102F0C007B68002283F83C20012300E00023184654
:102F1C000C37BD4680BC704780B586B000AF78607A
:102F2C007B68002B01D101236CE27B681B6803F0EA
:102F3C000103002B00F08780924B5B6803F00C03BD
:102F4C00042B0CD08F4B5B6803F00C03082B12D1B5
:102F5C008C4B5B6803F48033B3F5803F0BD1894B0A
:102F6C001B6803F40033002B6CD07B685B68002B70
:102F7C0068D1012346E27B685B68B3F5803F06D1DC
:102F8C00804B1B687F4A43F4803313602EE07B68D0
:102F9C005B68002B0CD17B4B1B687A4A23F4803383
:102FAC001360784B1B68774A23F4802313601DE071
:102FBC007B685B68B3F5A02F0CD1724B1B68714A10
:102FCC0043F4802313606F4B1B686E4A43F48033C9
:102FDC0013600BE06B4B1B686A4A23F4803313605D
:102FEC00684B1B68674A23F4802313607B685B681B
:102FFC00002B13D0FFF704F8386108E0FFF700F856
:10300C0002463B69D31A642B01D90323FAE15D4BC9
:10301C001B6803F40033002BF0D014E0FEF7F0FF34
:10302C00386108E0FEF7ECFF02463B69D31A642BCB
:10303C0001D90323E6E1534B1B6803F40033002B47
:10304C00F0D100E000BF7B681B6803F00203002B8B
:10305C0063D04C4B5B6803F00C03002B0BD0494B3B
:10306C005B6803F00C03082B1CD1464B5B6803F424
:10307C008033002B16D1434B1B6803F00203002B4B
:10308C0005D07B681B69012B01D00123BAE13D4BB4
:10309C001B6823F0F8027B685B69DB00394913433A
:1030AC000B603AE07B681B69002B20D0364B012269
:1030BC001A60FEF7A5FF386108E0FEF7A1FF024693
:1030CC003B69D31A022B01D903239BE12D4B1B68BF
:1030DC0003F00203002BF0D02A4B1B6823F0F802FC
:1030EC007B685B69DB00274913430B6015E0264BBB
:1030FC0000221A60FEF784FF386108E0FEF780FFBB
:10310C0002463B69D31A022B01D903237AE11D4BEA
:10311C001B6803F00203002BF0D17B681B6803F0E3
:10312C000803002B3AD07B689B69002B19D0174BF6
:10313C0001221A60FEF764FF386108E0FEF760FFB9
:10314C0002463B69D31A022B01D903235AE10D4BDA
:10315C005B6A03F00203002BF0D0012000F0B8FAF8
:10316C001CE00A4B00221A60FEF74AFF38610FE0A0
:10317C00FEF746FF02463B69D31A022B08D90323FC
:10318C0040E100BF00100240000042428004424275
:10319C009E4B5B6A03F00203002BE9D17B681B6832
:1031AC0003F00403002B00F0A6800023FB75974B63
:1031BC00DB6903F08053002B0DD1944BDB69934AF0
:1031CC0043F08053D361914BDB6903F08053BB60B8
:1031DC00BB680123FB758E4B1B6803F48073002BBB
:1031EC0018D18B4B1B688A4A43F480731360FEF72B
:1031FC0007FF386108E0FEF703FF02463B69D31A6C
:10320C00642B01D90323FDE0814B1B6803F480730D
:10321C00002BF0D07B68DB68012B06D17B4B1B6A43
:10322C007A4A43F0010313622DE07B68DB68002BC4
:10323C000CD1764B1B6A754A23F001031362734B56
:10324C001B6A724A23F0040313621CE07B68DB6880
:10325C00052B0CD16D4B1B6A6C4A43F004031362B3
:10326C006A4B1B6A694A43F0010313620BE0674B1C
:10327C001B6A664A23F001031362644B1B6A634AA0
:10328C0023F0040313627B68DB68002B15D0FEF778
:10329C00B7FE38610AE0FEF7B3FE02463B69D31A6B
:1032AC0041F28832934201D90323ABE0574B1B6A9E
:1032BC0003F00203002BEED014E0FEF7A1FE386100
:1032CC000AE0FEF79DFE02463B69D31A41F28832B2
:1032DC00934201D9032395E04C4B1B6A03F0020384
:1032EC00002BEED1FB7D012B05D1484BDB69474A06
:1032FC0023F08053D3617B68DB69002B00F0818065
:10330C00424B5B6803F00C03082B61D07B68DB69D4
:10331C00022B46D13F4B00221A60FEF771FE38613A
:10332C0008E0FEF76DFE02463B69D31A022B01D969
:10333C00032367E0354B1B6803F00073002BF0D1BF
:10334C007B681B6AB3F5803F08D1304B5B6823F474
:10335C0000327B689B682D4913434B602B4B5B6899
:10336C0023F474127B68196A7B685B6A0B432749E8
:10337C0013434B60274B01221A60FEF741FE386164
:10338C0008E0FEF73DFE02463B69D31A022B01D939
:10339C00032337E01D4B1B6803F00073002BF0D0A8
:1033AC002FE01C4B00221A60FEF72AFE386108E061
:1033BC00FEF726FE02463B69D31A022B01D90323E2
:1033CC0020E0124B1B6803F00073002BF0D118E0C7
:1033DC007B68DB69012B01D1012313E00B4B5B688C
:1033EC00FB60FB6803F480327B681B6A9A4206D14F
:1033FC00FB6803F470127B685B6A9A4201D001236C
:10340C0000E0002318461837BD4680BD001002406E
:10341C00007000406000424280B584B000AF78601C
:10342C0039607B68002B01D10123D0E06A4B1B680B
:10343C0003F007033A689A4210D9674B1B6823F0D4
:10344C00070265493B6813430B60634B1B6803F031
:10345C0007033A689A4201D00123B8E07B681B68E5
:10346C0003F00203002B20D07B681B6803F00403DD
:10347C00002B05D0594B5B68584A43F4E06353600A
:10348C007B681B6803F00803002B05D0534B5B686B
:10349C00524A43F460535360504B5B6823F0F00284
:1034AC007B689B684D4913434B607B681B6803F03A
:1034BC000103002B40D07B685B68012B07D1474B85
:1034CC001B6803F40033002B15D101237FE07B68CC
:1034DC005B68022B07D1414B1B6803F00073002B78
:1034EC0009D1012373E03D4B1B6803F00203002B51
:1034FC0001D101236BE0394B5B6823F003027B683D
:10350C005B68364913434B60FEF77AFDF8600AE0BE
:10351C00FEF776FD0246FB68D31A41F288329342DD
:10352C0001D9032353E02D4B5B6803F00C027B683D
:10353C005B689B009A42EBD1274B1B6803F0070397
:10354C003A689A4210D2244B1B6823F00702224996
:10355C003B6813430B60204B1B6803F007033A686E
:10356C009A4201D0012332E07B681B6803F004030C
:10357C00002B08D0194B5B6823F4E0627B68DB6896
:10358C00164913434B607B681B6803F00803002B40
:10359C0009D0124B5B6823F460527B681B69DB001B
:1035AC000E4913434B6000F021F802460B4B5B684D
:1035BC001B0903F00F030A49CB5C22FA03F3094AF7
:1035CC001360094B1B681846FEF7D8FC00231846FD
:1035DC001037BD4680BD00BF0020024000100240E5
:1035EC00E43F0008780000207C00002080B487B005
:1035FC0000AF0023FB600023BB6000237B61002332
:10360C007B6000233B611E4B5B68FB60FB6803F037
:10361C000C03042B02D0082B03D027E0194B3B6181
:10362C0027E0FB689B0C03F00F03174AD35C7B600D
:10363C00FB6803F48033002B10D0114B5B685B0CE0
:10364C0003F00103114AD35CBB607B680D4A02FB9B
:10365C0003F2BB68B2FBF3F37B6104E07B680C4ABA
:10366C0002FB03F37B617B693B6102E0054B3B6131
:10367C0000BF3B6918461C37BD4680BC704700BF75
:10368C000010024000127A00FC3F00080C400008B9
:10369C0000093D0080B400AF024B1B681846BD46C4
:1036AC0080BC70477800002080B500AFFFF7F2FFB8
:1036BC000246054B5B681B0A03F007030349CB5C0E
:1036CC0022FA03F3184680BD00100240F43F0008B4
:1036DC0080B485B000AF78600A4B1B680A4AA2FB25
:1036EC0003235B0A7A6802FB03F3FB6000BFFB68F1
:1036FC005A1EFA60002BF9D100BF00BF1437BD462B
:10370C0080BC704778000020D34D621080B582B029
:10371C0000AF78607B68002B01D1012341E07B680E
:10372C0093F83D30DBB2002B06D17B68002283F886
:10373C003C207868FEF78AFB7B68022283F83D20E8
:10374C007B681A687B6804331946104600F05CFAF3
:10375C007B68012283F846207B68012283F83E2097
:10376C007B68012283F83F207B68012283F840208C
:10377C007B68012283F841207B68012283F8422078
:10378C007B68012283F843207B68012283F8442064
:10379C007B68012283F845207B68012283F83D2059
:1037AC00002318460837BD4680BD000080B485B0A4
:1037BC0000AF78607B6893F83D30DBB2012B01D011
:1037CC0001233AE07B68022283F83D207B681B686A
:1037DC00DA687B681B6842F00102DA607B681B6860
:1037EC00184A93420ED07B681B68B3F1804F09D006
:1037FC007B681B68144A934204D07B681B68134A8D
:10380C00934211D17B681B689B6803F00703FB6034
:10381C00FB68062B10D07B681B681A687B681B68DA
:10382C0042F001021A6007E07B681B681A687B682B
:10383C001B6842F001021A60002318461437BD467B
:10384C0080BC7047002C0140000400400008004080
:10385C0080B584B000AF78607B681B68DB68FB6068
:10386C007B681B681B69BB60BB6803F00203002B01
:10387C0020D0FB6803F00203002B1BD07B681B6875
:10388C006FF002021A617B6801221A777B681B6851
:10389C009B6903F00303002B03D0786800F098F9C0
:1038AC0005E0786800F08BF9786800F09AF97B688D
:1038BC0000221A77BB6803F00403002B20D0FB68AE
:1038CC0003F00403002B1BD07B681B686FF0040211
:1038DC001A617B6802221A777B681B689B6903F468
:1038EC004073002B03D0786800F072F905E078681B
:1038FC0000F065F9786800F074F97B6800221A779B
:10390C00BB6803F00803002B20D0FB6803F008030E
:10391C00002B1BD07B681B686FF008021A617B6858
:10392C0004221A777B681B68DB6903F00303002B06
:10393C0003D0786800F04CF905E0786800F03FF9A6
:10394C00786800F04EF97B6800221A77BB6803F0A8
:10395C001003002B20D0FB6803F01003002B1BD0AE
:10396C007B681B686FF010021A617B6808221A775B
:10397C007B681B68DB6903F44073002B03D0786809
:10398C0000F026F905E0786800F019F9786800F085
:10399C0028F97B6800221A77BB6803F00103002B1F
:1039AC000CD0FB6803F00103002B07D07B681B686D
:1039BC006FF001021A617868FDF792FEBB6803F0A4
:1039CC008003002B0CD0FB6803F08003002B07D086
:1039DC007B681B686FF080021A61786800F07FFAD0
:1039EC00BB6803F04003002B0CD0FB6803F04003D2
:1039FC00002B07D07B681B686FF040021A61786857
:103A0C0000F0F8F8BB6803F02003002B0CD0FB6827
:103A1C0003F02003002B07D07B681B686FF020029B
:103A2C001A61786800F052FA00BF1037BD4680BDAD
:103A3C0080B584B000AF786039600023FB737B687D
:103A4C0093F83C30012B01D10223B4E07B680122B6
:103A5C0083F83C207B68022283F83D207B681B683E
:103A6C009B68BB60BB6823F07703BB60BB6823F427
:103A7C007F43BB607B681B68BA689A603B681B68B5
:103A8C00B3F5005F3ED0B3F5005F00F28780B3F56D
:103A9C00805F00F08680B3F5805F7FD8702B1AD0E2
:103AAC00702B7BD8602B50D0602B77D8502B3CD010
:103ABC00502B73D8402B58D0402B6FD8302B64D060
:103ACC00302B6BD8202B60D0202B67D8002B5CD0F0
:103ADC00102B5AD062E07B6818683B6899683B6889
:103AEC005A683B68DB6800F074F97B681B689B685C
:103AFC00BB60BB6843F07703BB607B681B68BA682C
:103B0C009A604FE07B6818683B6899683B685A6814
:103B1C003B68DB6800F05DF97B681B689A687B6822
:103B2C001B6842F480429A603CE07B6818683B68F2
:103B3C0059683B68DB681A4600F0D4F87B681B6850
:103B4C005021184600F02BF92CE07B6818683B6874
:103B5C0059683B68DB681A4600F0F2F87B681B6812
:103B6C006021184600F01BF91CE07B6818683B6864
:103B7C0059683B68DB681A4600F0B4F87B681B6830
:103B8C004021184600F00BF90CE07B681A683B6882
:103B9C001B681946104600F002F903E00123FB7381
:103BAC0000E000BF7B68012283F83D207B68002287
:103BBC0083F83C20FB7B18461037BD4680BD80B493
:103BCC0083B000AF786000BF0C37BD4680BC704737
:103BDC0080B483B000AF786000BF0C37BD4680BCAA
:103BEC00704780B483B000AF786000BF0C37BD461F
:103BFC0080BC704780B483B000AF786000BF0C37D6
:103C0C00BD4680BC7047000080B485B000AF7860C2
:103C1C0039607B681B68FB607B682F4A93420BD032
:103C2C007B68B3F1804F07D07B682C4A934203D05A
:103C3C007B682B4A934208D1FB6823F07003FB602E
:103C4C003B685B68FA681343FB607B68224A9342CB
:103C5C000BD07B68B3F1804F07D07B681F4A93422F
:103C6C0003D07B681E4A934208D1FB6823F440734F
:103C7C00FB603B68DB68FA681343FB60FB6823F06E
:103C8C0080023B685B691343FB607B68FA681A60CF
:103C9C003B689A687B68DA623B681A687B689A6250
:103CAC007B680D4A934203D13B681A697B681A639F
:103CBC007B6801225A617B681B6903F00103002BAE
:103CCC0005D07B681B6923F001027B681A6100BF79
:103CDC001437BD4680BC7047002C014000040040E6
:103CEC000008004080B487B000AFF860B9607A601B
:103CFC00FB681B6A7B61FB681B6A23F00102FB6893
:103D0C001A62FB689B693B613B6923F0F0033B61E2
:103D1C007B681B013A6913433B617B6923F00A03FF
:103D2C007B617A69BB6813437B61FB683A699A6172
:103D3C00FB687A691A6200BF1C37BD4680BC7047AD
:103D4C0080B487B000AFF860B9607A60FB681B6A1A
:103D5C007B61FB681B6A23F01002FB681A62FB682C
:103D6C009B693B613B6923F470433B617B681B039C
:103D7C003A6913433B617B6923F0A0037B61BB6809
:103D8C001B017A6913437B61FB683A699A61FB6892
:103D9C007A691A6200BF1C37BD4680BC704780B47C
:103DAC0085B000AF786039607B689B68FB60FB680E
:103DBC0023F07003FB603A68FB68134343F007037E
:103DCC00FB607B68FA689A6000BF1437BD4680BC04
:103DDC00704780B487B000AFF860B9607A603B6020
:103DEC00FB689B687B617B6923F47F437B613B6849
:103DFC001A027B681A43BB6813437A6913437B61CD
:103E0C00FB687A699A6000BF1C37BD4680BC70475E
:103E1C0080B485B000AF786039607B6893F83C3033
:103E2C00012B01D1022346E07B68012283F83C2060
:103E3C007B68022283F83D207B681B685B68FB6013
:103E4C007B681B689B68BB60FB6823F07003FB609E
:103E5C003B681B68FA681343FB607B681B68FA6855
:103E6C005A607B681B68164A93420ED07B681B68AD
:103E7C00B3F1804F09D07B681B68124A934204D07F
:103E8C007B681B68104A93420CD1BB6823F08003FB
:103E9C00BB603B685B68BA681343BB607B681B689C
:103EAC00BA689A607B68012283F83D207B68002207
:103EBC0083F83C20002318461437BD4680BC70475D
:103ECC00002C0140000400400008004080B483B086
:103EDC0000AF786000BF0C37BD4680BC704780B423
:103EEC0083B000AF786000BF0C37BD4680BC704714
:103EFC0070B500260C4D0D4C641BA410A64209D1C4
:103F0C0000F022F800260A4D0A4C641BA410A642AD
:103F1C0005D170BD55F8043B98470136EEE755F8CE
:103F2C00043B98470136F2E71040000810400008A7
:103F3C00104000081440000803460244934200D18C
:103F4C00704703F8011BF9E7F8B500BFF8BC08BCD3
:103F5C009E467047F8B500BFF8BC08BC9E4670473B
:103F6C004155544F204D4F4445000000523A20001B
:103F7C00473A2000593A20004D414E55414C204DB6
:103F8C004F44452000000000524544202020475259
:103F9C0045454E00475245454E2020524544200091
:103FAC0054554E4E494E47204D4F4445000000009D
:103FBC004D3A20005200000059000000470000005C
:103FCC004E3A2000202020202020202020202020BD
:103FDC002020202000000000000000000000000055
:103FEC000102030406070809000000000102030493
:103FFC0002030405060708090A0B0C0D0E0F10101E
:04400C0001020000AD
:044010003101000872
:044014000D01000892
:104018000100000001000000010000000100000094
:104028000100000001000000010000000100000084
:104038000100000001000000010000000100000074
:104048000100000001000000010000000100000064
:1040580064000000640000006400000064000000C8
:10406800000801400008014000100140000C014018
:104078000001000280004000010101010502030562
:10408800020305020301000000127A00100000007C
:044098000100000023
:0400000508001F11BF
:00000001FF
